{
  "contractName": "Election_with_ERC721",
  "abi": [
    {
      "inputs": [],
      "stateMutability": "nonpayable",
      "type": "constructor"
    },
    {
      "anonymous": false,
      "inputs": [
        {
          "indexed": true,
          "internalType": "address",
          "name": "owner",
          "type": "address"
        },
        {
          "indexed": true,
          "internalType": "address",
          "name": "approved",
          "type": "address"
        },
        {
          "indexed": true,
          "internalType": "uint256",
          "name": "tokenId",
          "type": "uint256"
        }
      ],
      "name": "Approval",
      "type": "event"
    },
    {
      "anonymous": false,
      "inputs": [
        {
          "indexed": true,
          "internalType": "address",
          "name": "owner",
          "type": "address"
        },
        {
          "indexed": true,
          "internalType": "address",
          "name": "operator",
          "type": "address"
        },
        {
          "indexed": false,
          "internalType": "bool",
          "name": "approved",
          "type": "bool"
        }
      ],
      "name": "ApprovalForAll",
      "type": "event"
    },
    {
      "anonymous": false,
      "inputs": [
        {
          "indexed": true,
          "internalType": "address",
          "name": "from",
          "type": "address"
        },
        {
          "indexed": true,
          "internalType": "address",
          "name": "to",
          "type": "address"
        },
        {
          "indexed": true,
          "internalType": "uint256",
          "name": "tokenId",
          "type": "uint256"
        }
      ],
      "name": "Transfer",
      "type": "event"
    },
    {
      "anonymous": false,
      "inputs": [
        {
          "indexed": true,
          "internalType": "address",
          "name": "_voter",
          "type": "address"
        },
        {
          "indexed": false,
          "internalType": "uint256",
          "name": "_id",
          "type": "uint256"
        }
      ],
      "name": "Voted",
      "type": "event"
    },
    {
      "inputs": [
        {
          "internalType": "address",
          "name": "to",
          "type": "address"
        },
        {
          "internalType": "uint256",
          "name": "tokenId",
          "type": "uint256"
        }
      ],
      "name": "approve",
      "outputs": [],
      "stateMutability": "nonpayable",
      "type": "function"
    },
    {
      "inputs": [
        {
          "internalType": "address",
          "name": "owner",
          "type": "address"
        }
      ],
      "name": "balanceOf",
      "outputs": [
        {
          "internalType": "uint256",
          "name": "",
          "type": "uint256"
        }
      ],
      "stateMutability": "view",
      "type": "function",
      "constant": true
    },
    {
      "inputs": [],
      "name": "baseURI",
      "outputs": [
        {
          "internalType": "string",
          "name": "",
          "type": "string"
        }
      ],
      "stateMutability": "view",
      "type": "function",
      "constant": true
    },
    {
      "inputs": [
        {
          "internalType": "uint256",
          "name": "",
          "type": "uint256"
        }
      ],
      "name": "candidates",
      "outputs": [
        {
          "internalType": "uint256",
          "name": "id",
          "type": "uint256"
        },
        {
          "internalType": "uint256",
          "name": "age",
          "type": "uint256"
        },
        {
          "internalType": "uint256",
          "name": "votedCount",
          "type": "uint256"
        },
        {
          "internalType": "string",
          "name": "name",
          "type": "string"
        }
      ],
      "stateMutability": "view",
      "type": "function",
      "constant": true
    },
    {
      "inputs": [
        {
          "internalType": "uint256",
          "name": "tokenId",
          "type": "uint256"
        }
      ],
      "name": "getApproved",
      "outputs": [
        {
          "internalType": "address",
          "name": "",
          "type": "address"
        }
      ],
      "stateMutability": "view",
      "type": "function",
      "constant": true
    },
    {
      "inputs": [
        {
          "internalType": "address",
          "name": "owner",
          "type": "address"
        },
        {
          "internalType": "address",
          "name": "operator",
          "type": "address"
        }
      ],
      "name": "isApprovedForAll",
      "outputs": [
        {
          "internalType": "bool",
          "name": "",
          "type": "bool"
        }
      ],
      "stateMutability": "view",
      "type": "function",
      "constant": true
    },
    {
      "inputs": [],
      "name": "name",
      "outputs": [
        {
          "internalType": "string",
          "name": "",
          "type": "string"
        }
      ],
      "stateMutability": "view",
      "type": "function",
      "constant": true
    },
    {
      "inputs": [
        {
          "internalType": "uint256",
          "name": "tokenId",
          "type": "uint256"
        }
      ],
      "name": "ownerOf",
      "outputs": [
        {
          "internalType": "address",
          "name": "",
          "type": "address"
        }
      ],
      "stateMutability": "view",
      "type": "function",
      "constant": true
    },
    {
      "inputs": [
        {
          "internalType": "address",
          "name": "from",
          "type": "address"
        },
        {
          "internalType": "address",
          "name": "to",
          "type": "address"
        },
        {
          "internalType": "uint256",
          "name": "tokenId",
          "type": "uint256"
        }
      ],
      "name": "safeTransferFrom",
      "outputs": [],
      "stateMutability": "nonpayable",
      "type": "function"
    },
    {
      "inputs": [
        {
          "internalType": "address",
          "name": "from",
          "type": "address"
        },
        {
          "internalType": "address",
          "name": "to",
          "type": "address"
        },
        {
          "internalType": "uint256",
          "name": "tokenId",
          "type": "uint256"
        },
        {
          "internalType": "bytes",
          "name": "_data",
          "type": "bytes"
        }
      ],
      "name": "safeTransferFrom",
      "outputs": [],
      "stateMutability": "nonpayable",
      "type": "function"
    },
    {
      "inputs": [
        {
          "internalType": "address",
          "name": "operator",
          "type": "address"
        },
        {
          "internalType": "bool",
          "name": "approved",
          "type": "bool"
        }
      ],
      "name": "setApprovalForAll",
      "outputs": [],
      "stateMutability": "nonpayable",
      "type": "function"
    },
    {
      "inputs": [
        {
          "internalType": "bytes4",
          "name": "interfaceId",
          "type": "bytes4"
        }
      ],
      "name": "supportsInterface",
      "outputs": [
        {
          "internalType": "bool",
          "name": "",
          "type": "bool"
        }
      ],
      "stateMutability": "view",
      "type": "function",
      "constant": true
    },
    {
      "inputs": [],
      "name": "symbol",
      "outputs": [
        {
          "internalType": "string",
          "name": "",
          "type": "string"
        }
      ],
      "stateMutability": "view",
      "type": "function",
      "constant": true
    },
    {
      "inputs": [
        {
          "internalType": "uint256",
          "name": "index",
          "type": "uint256"
        }
      ],
      "name": "tokenByIndex",
      "outputs": [
        {
          "internalType": "uint256",
          "name": "",
          "type": "uint256"
        }
      ],
      "stateMutability": "view",
      "type": "function",
      "constant": true
    },
    {
      "inputs": [
        {
          "internalType": "address",
          "name": "owner",
          "type": "address"
        },
        {
          "internalType": "uint256",
          "name": "index",
          "type": "uint256"
        }
      ],
      "name": "tokenOfOwnerByIndex",
      "outputs": [
        {
          "internalType": "uint256",
          "name": "",
          "type": "uint256"
        }
      ],
      "stateMutability": "view",
      "type": "function",
      "constant": true
    },
    {
      "inputs": [
        {
          "internalType": "uint256",
          "name": "tokenId",
          "type": "uint256"
        }
      ],
      "name": "tokenURI",
      "outputs": [
        {
          "internalType": "string",
          "name": "",
          "type": "string"
        }
      ],
      "stateMutability": "view",
      "type": "function",
      "constant": true
    },
    {
      "inputs": [],
      "name": "totalSupply",
      "outputs": [
        {
          "internalType": "uint256",
          "name": "",
          "type": "uint256"
        }
      ],
      "stateMutability": "view",
      "type": "function",
      "constant": true
    },
    {
      "inputs": [
        {
          "internalType": "address",
          "name": "from",
          "type": "address"
        },
        {
          "internalType": "address",
          "name": "to",
          "type": "address"
        },
        {
          "internalType": "uint256",
          "name": "tokenId",
          "type": "uint256"
        }
      ],
      "name": "transferFrom",
      "outputs": [],
      "stateMutability": "nonpayable",
      "type": "function"
    },
    {
      "inputs": [],
      "name": "getId",
      "outputs": [
        {
          "internalType": "uint256[]",
          "name": "_id",
          "type": "uint256[]"
        }
      ],
      "stateMutability": "view",
      "type": "function",
      "constant": true
    },
    {
      "inputs": [
        {
          "internalType": "uint256",
          "name": "_candidateId",
          "type": "uint256"
        }
      ],
      "name": "createIdForVoters",
      "outputs": [],
      "stateMutability": "nonpayable",
      "type": "function"
    }
  ],
  "bytecode": "0x6080604052662386f26fc10000600a553480156200001c57600080fd5b50604080518082018252600d81526c22b632b1ba34b7b72a37b5b2b760991b6020808301919091528251808401909352600383526245544b60e81b9083015290620000776301ffc9a760e01b6001600160e01b03620001ad16565b81516200008c9060069060208501906200072a565b508051620000a29060079060208401906200072a565b50620000be6380ac58cd60e01b6001600160e01b03620001ad16565b620000d9635b5e139f60e01b6001600160e01b03620001ad16565b620000f463780e9d6360e01b6001600160e01b03620001ad16565b50506200014d73b560daa22c3c307a4fcee0503311a608aa28661e6001600160a01b0316601460006040518060400160405280600c81526020016b4b68656e672043686861796160a01b8152506200023260201b60201c565b620001a7739810c947f78be8edcab4e56d474960c3ee4495d56001600160a01b0316601560006040518060400160405280600f81526020016e4b68656e6720536d65616e6368657960881b8152506200023260201b60201c565b620007cf565b6001600160e01b031980821614156200020d576040805162461bcd60e51b815260206004820152601c60248201527f4552433136353a20696e76616c696420696e7465726661636520696400000000604482015290519081900360640190fd5b6001600160e01b0319166000908152602081905260409020805460ff19166001179055565b600062000248856001600160e01b036200030816565b90506200025e816001600160e01b036200034c16565b1515600114156200026b57fe5b336000908152600b6020908152604080832080546001818101835591855283852001859055815160808101835289815280840189815281840189815260608301898152888852600c8752949096208251815590519281019290925593516002820155905180519192620002e7926003850192909101906200072a565b50620003019150339050826001600160e01b036200036f16565b5050505050565b604080516020808201849052825180830382018152918301909252805190820120600a546000926200034591839162001618620004d5821b17901c565b9392505050565b6000620003698260026200051f60201b6200160c1790919060201c565b92915050565b6001600160a01b038216620003cb576040805162461bcd60e51b815260206004820181905260248201527f4552433732313a206d696e7420746f20746865207a65726f2061646472657373604482015290519081900360640190fd5b620003df816001600160e01b036200034c16565b1562000432576040805162461bcd60e51b815260206004820152601c60248201527f4552433732313a20746f6b656e20616c7265616479206d696e74656400000000604482015290519081900360640190fd5b62000449600083836001600160e01b036200053616565b6001600160a01b03821660009081526001602090815260409091206200047a9183906200165a6200053b821b17901c565b5062000498818360026200055260201b62001666179092919060201c565b5060405181906001600160a01b038416906000907fddf252ad1be2c89b69c2b068fc378daa952ba7f163c4a11628f55a4df523b3ef908290a45050565b60006200034583836040518060400160405280601881526020017f536166654d6174683a206d6f64756c6f206279207a65726f00000000000000008152506200057b60201b60201c565b60006200034583836001600160e01b036200061f16565b505050565b60006200034583836001600160e01b036200063716565b60006200057384846001600160a01b0385166001600160e01b036200068f16565b949350505050565b600081836200060b5760405162461bcd60e51b81526004018080602001828103825283818151815260200191508051906020019080838360005b83811015620005cf578181015183820152602001620005b5565b50505050905090810190601f168015620005fd5780820380516001836020036101000a031916815260200191505b509250505060405180910390fd5b508284816200061657fe5b06949350505050565b60009081526001919091016020526040902054151590565b60006200064e83836001600160e01b036200061f16565b620006865750815460018181018455600084815260208082209093018490558454848252828601909352604090209190915562000369565b50600062000369565b600082815260018401602052604081205480620006f657505060408051808201825283815260208082018481528654600181810189556000898152848120955160029093029095019182559151908201558654868452818801909252929091205562000345565b828560000160018303815481106200070a57fe5b906000526020600020906002020160010181905550600091505062000345565b828054600181600116156101000203166002900490600052602060002090601f016020900481019282601f106200076d57805160ff19168380011785556200079d565b828001600101855582156200079d579182015b828111156200079d57825182559160200191906001019062000780565b50620007ab929150620007af565b5090565b620007cc91905b80821115620007ab5760008155600101620007b6565b90565b611f2780620007df6000396000f3fe608060405234801561001057600080fd5b506004361061012c5760003560e01c80634f6ccce7116100ad57806395d89b411161007157806395d89b4114610489578063a22cb46514610491578063b88d4fde146104bf578063c87b56dd14610585578063e985e9c5146105a25761012c565b80634f6ccce7146103c95780635d1ca631146103e65780636352211e1461043e5780636c0360eb1461045b57806370a08231146104635761012c565b806318160ddd116100f457806318160ddd1461026d57806323b872dd146102875780632f745c59146102bd5780633477ee2e146102e957806342842e0e146103935761012c565b806301ffc9a71461013157806306fdde031461016c578063081812fc146101e9578063095ea7b3146102225780630a6e818c14610250575b600080fd5b6101586004803603602081101561014757600080fd5b50356001600160e01b0319166105d0565b604080519115158252519081900360200190f35b6101746105f3565b6040805160208082528351818301528351919283929083019185019080838360005b838110156101ae578181015183820152602001610196565b50505050905090810190601f1680156101db5780820380516001836020036101000a031916815260200191505b509250505060405180910390f35b610206600480360360208110156101ff57600080fd5b5035610689565b604080516001600160a01b039092168252519081900360200190f35b61024e6004803603604081101561023857600080fd5b506001600160a01b0381351690602001356106eb565b005b61024e6004803603602081101561026657600080fd5b50356107c6565b6102756108bd565b60408051918252519081900360200190f35b61024e6004803603606081101561029d57600080fd5b506001600160a01b038135811691602081013590911690604001356108ce565b610275600480360360408110156102d357600080fd5b506001600160a01b038135169060200135610925565b610306600480360360208110156102ff57600080fd5b5035610956565b6040518085815260200184815260200183815260200180602001828103825283818151815260200191508051906020019080838360005b8381101561035557818101518382015260200161033d565b50505050905090810190601f1680156103825780820380516001836020036101000a031916815260200191505b509550505050505060405180910390f35b61024e600480360360608110156103a957600080fd5b506001600160a01b03813581169160208101359091169060400135610a1e565b610275600480360360208110156103df57600080fd5b5035610a39565b6103ee610a55565b60408051602080825283518183015283519192839290830191858101910280838360005b8381101561042a578181015183820152602001610412565b505050509050019250505060405180910390f35b6102066004803603602081101561045457600080fd5b5035610ab5565b610174610ae3565b6102756004803603602081101561047957600080fd5b50356001600160a01b0316610b44565b610174610bac565b61024e600480360360408110156104a757600080fd5b506001600160a01b0381351690602001351515610c0d565b61024e600480360360808110156104d557600080fd5b6001600160a01b0382358116926020810135909116916040820135919081019060808101606082013564010000000081111561051057600080fd5b82018360208201111561052257600080fd5b8035906020019184600183028401116401000000008311171561054457600080fd5b91908080601f016020809104026020016040519081016040528093929190818152602001838380828437600092019190915250929550610d12945050505050565b6101746004803603602081101561059b57600080fd5b5035610d70565b610158600480360360408110156105b857600080fd5b506001600160a01b0381358116916020013516611017565b6001600160e01b0319811660009081526020819052604090205460ff165b919050565b60068054604080516020601f600260001961010060018816150201909516949094049384018190048102820181019092528281526060939092909183018282801561067f5780601f106106545761010080835404028352916020019161067f565b820191906000526020600020905b81548152906001019060200180831161066257829003601f168201915b5050505050905090565b600061069482611045565b6106cf5760405162461bcd60e51b815260040180806020018281038252602c815260200180611e1c602c913960400191505060405180910390fd5b506000908152600460205260409020546001600160a01b031690565b60006106f682610ab5565b9050806001600160a01b0316836001600160a01b031614156107495760405162461bcd60e51b8152600401808060200182810382526021815260200180611ea06021913960400191505060405180910390fd5b806001600160a01b031661075b611058565b6001600160a01b0316148061077c575061077c81610777611058565b611017565b6107b75760405162461bcd60e51b8152600401808060200182810382526038815260200180611d6f6038913960400191505060405180910390fd5b6107c1838361105c565b505050565b60006107d1336110ca565b90506107dc81611045565b151560011415610833576040805162461bcd60e51b815260206004820152601a60248201527f74686973206163636f756e7420616c726561647920766f746564000000000000604482015290519081900360640190fd5b336000818152600b602090815260408220805460018101825590835291200182905561085f9082611109565b6000818152600c602052604090206002015461088290600163ffffffff61124316565b5060408051828152905133917f4d99b957a2bc29a30ebd96a7be8e68fe50a3c701db28a91436490b7d53870ca4919081900360200190a25050565b60006108c9600261129d565b905090565b6108df6108d9611058565b826112a8565b61091a5760405162461bcd60e51b8152600401808060200182810382526031815260200180611ec16031913960400191505060405180910390fd5b6107c183838361134c565b6001600160a01b038216600090815260016020526040812061094d908363ffffffff6114aa16565b90505b92915050565b600c602052806000526040600020600091509050806000015490806001015490806002015490806003018054600181600116156101000203166002900480601f016020809104026020016040519081016040528092919081815260200182805460018160011615610100020316600290048015610a145780601f106109e957610100808354040283529160200191610a14565b820191906000526020600020905b8154815290600101906020018083116109f757829003601f168201915b5050505050905084565b6107c183838360405180602001604052806000815250610d12565b600080610a4d60028463ffffffff6114b616565b509392505050565b336000908152600b602090815260409182902080548351818402810184019094528084526060939283018282801561067f57602002820191906000526020600020905b815481526020019060010190808311610a98575050505050905090565b600061095082604051806060016040528060298152602001611dd1602991396002919063ffffffff6114d216565b60098054604080516020601f600260001961010060018816150201909516949094049384018190048102820181019092528281526060939092909183018282801561067f5780601f106106545761010080835404028352916020019161067f565b60006001600160a01b038216610b8b5760405162461bcd60e51b815260040180806020018281038252602a815260200180611da7602a913960400191505060405180910390fd5b6001600160a01b03821660009081526001602052604090206109509061129d565b60078054604080516020601f600260001961010060018816150201909516949094049384018190048102820181019092528281526060939092909183018282801561067f5780601f106106545761010080835404028352916020019161067f565b610c15611058565b6001600160a01b0316826001600160a01b03161415610c7b576040805162461bcd60e51b815260206004820152601960248201527f4552433732313a20617070726f766520746f2063616c6c657200000000000000604482015290519081900360640190fd5b8060056000610c88611058565b6001600160a01b03908116825260208083019390935260409182016000908120918716808252919093529120805460ff191692151592909217909155610ccc611058565b60408051841515815290516001600160a01b0392909216917f17307eab39ab6107e8899845ad3d59bd9653f200f220920489ca2b5937696c319181900360200190a35050565b610d23610d1d611058565b836112a8565b610d5e5760405162461bcd60e51b8152600401808060200182810382526031815260200180611ec16031913960400191505060405180910390fd5b610d6a848484846114df565b50505050565b6060610d7b82611045565b610db65760405162461bcd60e51b815260040180806020018281038252602f815260200180611e71602f913960400191505060405180910390fd5b60008281526008602090815260409182902080548351601f6002600019610100600186161502019093169290920491820184900484028101840190945280845260609392830182828015610e4b5780601f10610e2057610100808354040283529160200191610e4b565b820191906000526020600020905b815481529060010190602001808311610e2e57829003601f168201915b505060095493945050505060026000196101006001841615020190911604610e745790506105ee565b805115610f45576009816040516020018083805460018160011615610100020316600290048015610edc5780601f10610eba576101008083540402835291820191610edc565b820191906000526020600020905b815481529060010190602001808311610ec8575b5050825160208401908083835b60208310610f085780518252601f199092019160209182019101610ee9565b6001836020036101000a038019825116818451168082178552505050505050905001925050506040516020818303038152906040529150506105ee565b6009610f5084611531565b6040516020018083805460018160011615610100020316600290048015610fae5780601f10610f8c576101008083540402835291820191610fae565b820191906000526020600020905b815481529060010190602001808311610f9a575b5050825160208401908083835b60208310610fda5780518252601f199092019160209182019101610fbb565b6001836020036101000a03801982511681845116808217855250505050505090500192505050604051602081830303815290604052915050919050565b6001600160a01b03918216600090815260056020908152604080832093909416825291909152205460ff1690565b600061095060028363ffffffff61160c16565b3390565b600081815260046020526040902080546001600160a01b0319166001600160a01b038416908117909155819061109182610ab5565b6001600160a01b03167f8c5be1e5ebec7d5bd14f71427d1e84f3dd0314c0f7b2291e5b200ac8c7c3b92560405160405180910390a45050565b6040805160208082018490528251808303820181529183019092528051910120600a546000919061110290829063ffffffff61161816565b9392505050565b6001600160a01b038216611164576040805162461bcd60e51b815260206004820181905260248201527f4552433732313a206d696e7420746f20746865207a65726f2061646472657373604482015290519081900360640190fd5b61116d81611045565b156111bf576040805162461bcd60e51b815260206004820152601c60248201527f4552433732313a20746f6b656e20616c7265616479206d696e74656400000000604482015290519081900360640190fd5b6111cb600083836107c1565b6001600160a01b03821660009081526001602052604090206111f3908263ffffffff61165a16565b506112066002828463ffffffff61166616565b5060405181906001600160a01b038416906000907fddf252ad1be2c89b69c2b068fc378daa952ba7f163c4a11628f55a4df523b3ef908290a45050565b60008282018381101561094d576040805162461bcd60e51b815260206004820152601b60248201527f536166654d6174683a206164646974696f6e206f766572666c6f770000000000604482015290519081900360640190fd5b60006109508261167c565b60006112b382611045565b6112ee5760405162461bcd60e51b815260040180806020018281038252602c815260200180611d43602c913960400191505060405180910390fd5b60006112f983610ab5565b9050806001600160a01b0316846001600160a01b031614806113345750836001600160a01b031661132984610689565b6001600160a01b0316145b8061134457506113448185611017565b949350505050565b826001600160a01b031661135f82610ab5565b6001600160a01b0316146113a45760405162461bcd60e51b8152600401808060200182810382526029815260200180611e486029913960400191505060405180910390fd5b6001600160a01b0382166113e95760405162461bcd60e51b8152600401808060200182810382526024815260200180611d1f6024913960400191505060405180910390fd5b6113f48383836107c1565b6113ff60008261105c565b6001600160a01b0383166000908152600160205260409020611427908263ffffffff61168016565b506001600160a01b0382166000908152600160205260409020611450908263ffffffff61165a16565b506114636002828463ffffffff61166616565b5080826001600160a01b0316846001600160a01b03167fddf252ad1be2c89b69c2b068fc378daa952ba7f163c4a11628f55a4df523b3ef60405160405180910390a4505050565b600061094d838361168c565b60008080806114c586866116f0565b9097909650945050505050565b600061134484848461176b565b6114ea84848461134c565b6114f684848484611835565b610d6a5760405162461bcd60e51b8152600401808060200182810382526032815260200180611ced6032913960400191505060405180910390fd5b60608161155657506040805180820190915260018152600360fc1b60208201526105ee565b8160005b811561156e57600101600a8204915061155a565b60608167ffffffffffffffff8111801561158757600080fd5b506040519080825280601f01601f1916602001820160405280156115b2576020820181803683370190505b50859350905060001982015b831561160357600a840660300160f81b828280600190039350815181106115e157fe5b60200101906001600160f81b031916908160001a905350600a840493506115be565b50949350505050565b600061094d8383611a70565b600061094d83836040518060400160405280601881526020017f536166654d6174683a206d6f64756c6f206279207a65726f0000000000000000815250611a88565b600061094d8383611aea565b600061134484846001600160a01b038516611b34565b5490565b600061094d8383611bcb565b815460009082106116ce5760405162461bcd60e51b8152600401808060200182810382526022815260200180611ccb6022913960400191505060405180910390fd5b8260000182815481106116dd57fe5b9060005260206000200154905092915050565b8154600090819083106117345760405162461bcd60e51b8152600401808060200182810382526022815260200180611dfa6022913960400191505060405180910390fd5b600084600001848154811061174557fe5b906000526020600020906002020190508060000154816001015492509250509250929050565b600082815260018401602052604081205482816118065760405162461bcd60e51b81526004018080602001828103825283818151815260200191508051906020019080838360005b838110156117cb5781810151838201526020016117b3565b50505050905090810190601f1680156117f85780820380516001836020036101000a031916815260200191505b509250505060405180910390fd5b5084600001600182038154811061181957fe5b9060005260206000209060020201600101549150509392505050565b6000611849846001600160a01b0316611c91565b61185557506001611344565b600060606001600160a01b038616630a85bd0160e11b611873611058565b89888860405160240180856001600160a01b03166001600160a01b03168152602001846001600160a01b03166001600160a01b0316815260200183815260200180602001828103825283818151815260200191508051906020019080838360005b838110156118ec5781810151838201526020016118d4565b50505050905090810190601f1680156119195780820380516001836020036101000a031916815260200191505b5060408051601f198184030181529181526020820180516001600160e01b03166001600160e01b0319909a16999099178952518151919890975087965094509250829150849050835b602083106119815780518252601f199092019160209182019101611962565b6001836020036101000a0380198251168184511680821785525050505050509050019150506000604051808303816000865af19150503d80600081146119e3576040519150601f19603f3d011682016040523d82523d6000602084013e6119e8565b606091505b509150915081611a3957805115611a025780518082602001fd5b60405162461bcd60e51b8152600401808060200182810382526032815260200180611ced6032913960400191505060405180910390fd5b6000818060200190516020811015611a5057600080fd5b50516001600160e01b031916630a85bd0160e11b14935061134492505050565b60009081526001919091016020526040902054151590565b60008183611ad75760405162461bcd60e51b81526020600482018181528351602484015283519092839260449091019190850190808383600083156117cb5781810151838201526020016117b3565b50828481611ae157fe5b06949350505050565b6000611af68383611a70565b611b2c57508154600181810184556000848152602080822090930184905584548482528286019093526040902091909155610950565b506000610950565b600082815260018401602052604081205480611b99575050604080518082018252838152602080820184815286546001818101895560008981528481209551600290930290950191825591519082015586548684528188019092529290912055611102565b82856000016001830381548110611bac57fe5b9060005260206000209060020201600101819055506000915050611102565b60008181526001830160205260408120548015611c875783546000198083019190810190600090879083908110611bfe57fe5b9060005260206000200154905080876000018481548110611c1b57fe5b600091825260208083209091019290925582815260018981019092526040902090840190558654879080611c4b57fe5b60019003818190600052602060002001600090559055866001016000878152602001908152602001600020600090556001945050505050610950565b6000915050610950565b6000813f7fc5d2460186f7233c927e7db2dcc703c0e500b653ca82273b7bfad8045d85a47081811480159061134457505015159291505056fe456e756d657261626c655365743a20696e646578206f7574206f6620626f756e64734552433732313a207472616e7366657220746f206e6f6e20455243373231526563656976657220696d706c656d656e7465724552433732313a207472616e7366657220746f20746865207a65726f20616464726573734552433732313a206f70657261746f7220717565727920666f72206e6f6e6578697374656e7420746f6b656e4552433732313a20617070726f76652063616c6c6572206973206e6f74206f776e6572206e6f7220617070726f76656420666f7220616c6c4552433732313a2062616c616e636520717565727920666f7220746865207a65726f20616464726573734552433732313a206f776e657220717565727920666f72206e6f6e6578697374656e7420746f6b656e456e756d657261626c654d61703a20696e646578206f7574206f6620626f756e64734552433732313a20617070726f76656420717565727920666f72206e6f6e6578697374656e7420746f6b656e4552433732313a207472616e73666572206f6620746f6b656e2074686174206973206e6f74206f776e4552433732314d657461646174613a2055524920717565727920666f72206e6f6e6578697374656e7420746f6b656e4552433732313a20617070726f76616c20746f2063757272656e74206f776e65724552433732313a207472616e736665722063616c6c6572206973206e6f74206f776e6572206e6f7220617070726f766564a2646970667358221220ab5e2a80b70414701ebfca22e1f374f7813355674c04a3665b2241b477fd1ad764736f6c63430006070033",
  "immutableReferences": {},
  "source": "pragma solidity 0.6.7;\nimport \"@openzeppelin/contracts/token/ERC721/ERC721.sol\";\nimport \"@openzeppelin/contracts/math/SafeMath.sol\";\n\ncontract Election_with_ERC721 is ERC721\n{\n\tusing SafeMath for uint256;\n\t//set the name and the symbol of our token through openzeppelin contract\n\tconstructor() ERC721(\"ElectionToken\",\"ETK\") public\n\t {\n         createIDForCandidates(uint(0xb560daA22c3C307a4fcEE0503311a608aa28661E),20,0,\"Kheng Chhaya\");\n         createIDForCandidates(uint(0x9810C947f78bE8edcAB4E56d474960c3eE4495d5),21,0,\"Kheng Smeanchey\");\n\n\t }\n\n\t// struct the candidates properties\n\tstruct Candidates\n\t{\n\t\tuint256 id;\n\t\tuint256 age;\n\t\tuint256 votedCount;\n\t\tstring name;\n\t}\n\tevent Voted(address indexed _voter,uint256 _id);\n\tuint256 private idLimiit = 10**16;\n\tmapping(address => uint[])private idOwner;\n\tmapping(uint256 => Candidates) public candidates;\n\t//create a function to generate the id for candidates\n\tfunction generateID(uint256 _id) private view returns(uint256)\n\t{\n\t\tuint256 id = uint(keccak256(abi.encodePacked(_id)));\n\t\treturn id.mod(idLimiit);\n\t}\n\t//create a function to create id\n\tfunction createIDForCandidates(uint256 _id,uint256 _age,uint256 _votedCounts,string memory _name) private \n\t{\n\n\t\tuint id = generateID(_id);\n\t\tassert(_exists(id) != true);\n\t\tidOwner[msg.sender].push(id);\n\t\tcandidates[id] = Candidates(_id,_age,_votedCounts,_name);\n\t\t_mint(msg.sender,id);\n\n\t}\n\tfunction getId() public view returns(uint[] memory _id)\n\t{\n\t\treturn idOwner[msg.sender];\n\t}\n\t//create ID for voters\n\tfunction createIdForVoters(uint256 _candidateId) public\n\t{\n\t\tuint256 id = generateID(uint256(msg.sender));\n\t\trequire(_exists(id) != true,\"this account already voted\");\n\t\tidOwner[msg.sender].push(id);\n\t\t_mint(msg.sender,id);\n\t\tcandidates[id].votedCount.add(1);\n\t\temit Voted(msg.sender,id);\n\t}\n\n\t\n\t\n\n\n}",
  "sourcePath": "/home/kheng/Desktop/Election_With_ERC721/contracts/Election_with_ERC721.sol",
  "compiler": {
    "name": "solc",
    "version": "0.6.7+commit.b8d736ae.Emscripten.clang"
  },
  "schemaVersion": "3.2.0",
  "updatedAt": "2020-06-01T07:22:24.646Z",
  "networkType": "ethereum",
  "devdoc": {
    "methods": {
      "approve(address,uint256)": {
        "details": "Approves another address to transfer the given token ID The zero address indicates there is no approved address. There can only be one approved address per token at a given time. Can only be called by the token owner or an approved operator.",
        "params": {
          "to": "address to be approved for the given token ID",
          "tokenId": "uint256 ID of the token to be approved"
        }
      },
      "balanceOf(address)": {
        "details": "Gets the balance of the specified address.",
        "params": {
          "owner": "address to query the balance of"
        },
        "returns": {
          "_0": "uint256 representing the amount owned by the passed address"
        }
      },
      "baseURI()": {
        "details": "Returns the base URI set via {_setBaseURI}. This will be automatically added as a prefix in {tokenURI} to each token's URI, or to the token ID if no specific URI is set for that token ID."
      },
      "getApproved(uint256)": {
        "details": "Gets the approved address for a token ID, or zero if no address set Reverts if the token ID does not exist.",
        "params": {
          "tokenId": "uint256 ID of the token to query the approval of"
        },
        "returns": {
          "_0": "address currently approved for the given token ID"
        }
      },
      "isApprovedForAll(address,address)": {
        "details": "Tells whether an operator is approved by a given owner.",
        "params": {
          "operator": "operator address which you want to query the approval of",
          "owner": "owner address which you want to query the approval of"
        },
        "returns": {
          "_0": "bool whether the given operator is approved by the given owner"
        }
      },
      "name()": {
        "details": "Gets the token name.",
        "returns": {
          "_0": "string representing the token name"
        }
      },
      "ownerOf(uint256)": {
        "details": "Gets the owner of the specified token ID.",
        "params": {
          "tokenId": "uint256 ID of the token to query the owner of"
        },
        "returns": {
          "_0": "address currently marked as the owner of the given token ID"
        }
      },
      "safeTransferFrom(address,address,uint256)": {
        "details": "Safely transfers the ownership of a given token ID to another address If the target address is a contract, it must implement {IERC721Receiver-onERC721Received}, which is called upon a safe transfer, and return the magic value `bytes4(keccak256(\"onERC721Received(address,address,uint256,bytes)\"))`; otherwise, the transfer is reverted. Requires the msg.sender to be the owner, approved, or operator",
        "params": {
          "from": "current owner of the token",
          "to": "address to receive the ownership of the given token ID",
          "tokenId": "uint256 ID of the token to be transferred"
        }
      },
      "safeTransferFrom(address,address,uint256,bytes)": {
        "details": "Safely transfers the ownership of a given token ID to another address If the target address is a contract, it must implement {IERC721Receiver-onERC721Received}, which is called upon a safe transfer, and return the magic value `bytes4(keccak256(\"onERC721Received(address,address,uint256,bytes)\"))`; otherwise, the transfer is reverted. Requires the _msgSender() to be the owner, approved, or operator",
        "params": {
          "_data": "bytes data to send along with a safe transfer check",
          "from": "current owner of the token",
          "to": "address to receive the ownership of the given token ID",
          "tokenId": "uint256 ID of the token to be transferred"
        }
      },
      "setApprovalForAll(address,bool)": {
        "details": "Sets or unsets the approval of a given operator An operator is allowed to transfer all tokens of the sender on their behalf.",
        "params": {
          "approved": "representing the status of the approval to be set",
          "operator": "operator address to set the approval"
        }
      },
      "supportsInterface(bytes4)": {
        "details": "See {IERC165-supportsInterface}.     * Time complexity O(1), guaranteed to always use less than 30 000 gas."
      },
      "symbol()": {
        "details": "Gets the token symbol.",
        "returns": {
          "_0": "string representing the token symbol"
        }
      },
      "tokenByIndex(uint256)": {
        "details": "Gets the token ID at a given index of all the tokens in this contract Reverts if the index is greater or equal to the total number of tokens.",
        "params": {
          "index": "uint256 representing the index to be accessed of the tokens list"
        },
        "returns": {
          "_0": "uint256 token ID at the given index of the tokens list"
        }
      },
      "tokenOfOwnerByIndex(address,uint256)": {
        "details": "Gets the token ID at a given index of the tokens list of the requested owner.",
        "params": {
          "index": "uint256 representing the index to be accessed of the requested tokens list",
          "owner": "address owning the tokens list to be accessed"
        },
        "returns": {
          "_0": "uint256 token ID at the given index of the tokens list owned by the requested address"
        }
      },
      "tokenURI(uint256)": {
        "details": "Returns the URI for a given token ID. May return an empty string.     * If a base URI is set (via {_setBaseURI}), it is added as a prefix to the token's own URI (via {_setTokenURI}).     * If there is a base URI but no token URI, the token's ID will be used as its URI when appending it to the base URI. This pattern for autogenerated token URIs can lead to large gas savings.     * .Examples |=== |`_setBaseURI()` |`_setTokenURI()` |`tokenURI()` | \"\" | \"\" | \"\" | \"\" | \"token.uri/123\" | \"token.uri/123\" | \"token.uri/\" | \"123\" | \"token.uri/123\" | \"token.uri/\" | \"\" | \"token.uri/<tokenId>\" |===     * Requirements:     * - `tokenId` must exist."
      },
      "totalSupply()": {
        "details": "Gets the total amount of tokens stored by the contract.",
        "returns": {
          "_0": "uint256 representing the total amount of tokens"
        }
      },
      "transferFrom(address,address,uint256)": {
        "details": "Transfers the ownership of a given token ID to another address. Usage of this method is discouraged, use {safeTransferFrom} whenever possible. Requires the msg.sender to be the owner, approved, or operator.",
        "params": {
          "from": "current owner of the token",
          "to": "address to receive the ownership of the given token ID",
          "tokenId": "uint256 ID of the token to be transferred"
        }
      }
    }
  },
  "userdoc": {
    "methods": {}
  }
}